:100000000C9434000C9446000C9446000C9446006A
:100010000C9446000C9446000C9446000C94460048
:100020000C9446000C9446000C9446000C94460038
:100030000C9446000C9446000C94A3000C944600CB
:100040000C9446000C9446000C9446000C94460018
:100050000C943A010C94BD000C9446000C9446009C
:100060000C9446000C94460011241FBECFEFD4E040
:10007000DEBFCDBF24E0A0E0B1E001C01D92AB32F5
:10008000B207E1F70E94FF010C9452020C940000A9
:10009000529A5A988FEB93E00197F1F700C0000055
:1000A00052985A9A9AEB9A95F1F700C089B1E3E316
:1000B000F3E03197F1F700C0000082FB882780F958
:1000C00091E08927089598E0529A5A9880FF0AC0D3
:1000D00020E12A95F1F752985A9A2AEA2A95F1F7DF
:1000E00000C009C020EA2A95F1F752985A9A2AE1ED
:1000F0002A95F1F700C08695915031F7089520E0D8
:1001000030E080E061E070E0529A5A9840E14A9510
:10011000F1F752985A9A98E19A95F1F799B142E914
:100120004A95F1F700C092FF08C0AB01022E02C051
:10013000440F551F0A94E2F7842B2F5F3F4F28305E
:10014000310511F708951F920F920FB60F921124E7
:100150008F93EF93FF9380E480937C00EAE7F0E0D5
:1001600080818064808310920701FF91EF918F91CD
:100170000F900FBE0F901F9018951F920F920FB601
:100180000F9211242F933F938F939F93EF93FF939D
:1001900080917800909179002091070121111FC072
:1001A00020910A01222319F02BE932E002C023E654
:1001B00033E0E0910801F0910901EE0FFF1FE20F1B
:1001C000F31F9183808381E480937C00EAE7F0E071
:1001D00080818064808381E08093070140C020910A
:1001E0000A01222319F02BE031E002C023ED31E0B7
:1001F000E0910801F0910901EE0FFF1FE20FF31FDC
:1002000091838083809108019091090101969093D8
:1002100009018093080180910801909109018436B9
:100220009105E8F0109209011092080180910601F1
:10023000811115C080910A018093050180910A0106
:1002400091E0892780930A01109204011092030122
:1002500010920201909306018AEA8093C600FF91F2
:10026000EF919F918F913F912F910F900FBE0F9023
:100270001F9018951F920F920FB60F9211242F9373
:100280003F934F935F938F939F93EF93FF9380914F
:100290000601882309F4A6C080910501882319F07E
:1002A0004BE952E002C043E653E080910501882308
:1002B00019F02BE031E002C023ED31E08091020122
:1002C000823081F128F4882359F08130D1F08AC03E
:1002D000843009F449C0B8F1853009F44FC082C0B8
:1002E0008091030190910401880F991FFA01E80F92
:1002F000F91F808191819093C60081E08093020173
:1003000071C08091030190910401880F991FFA0137
:10031000E80FF91F808191818093C60082E080936D
:10032000020160C08091030190910401880F991F20
:10033000F901E80FF91F808191819093C60083E055
:10034000809302014FC08091030190910401880FB6
:10035000991FF901E80FF91F808191818093C600F0
:1003600084E0809302013EC08091000190910101E0
:100370009093C60085E08093020134C08091000113
:10038000909101018093C6001092020180910301B7
:1003900090910401880F991FFA01E80FF91F11824B
:1003A00010828091030190910401880F991FF90137
:1003B000E80FF91F118210828091030190910401CE
:1003C0000196909304018093030180910301909121
:1003D00004018436910518F01092060103C08AEAE0
:1003E0008093C600FF91EF919F918F915F914F9104
:1003F0003F912F910F900FBE0F901F90189517B837
:1004000018B852985A9A82E084BD94E095BD9BE951
:1004100097BD16BC80936E001092C50083E3809355
:10042000C40086E08093C2001092C00088E48093EC
:10043000C1008EE880937A0080E480937C0083E0A2
:1004400080937E000E9448008CEC0E94630084E44C
:100450000E94630078948091060101C08C2FC091A6
:1004600006018823D9F3C111F9CF0E9448008CEC12
:100470000E9463008EEB0E9463000E947F00D82FD1
:100480000E947F002D2F30E0382B30930101209304
:1004900000010E9448008CEC0E94630084E40E94EA
:0804A0006300DCCFF894FFCFEC
:00000001FF
