:1000000009C021C020C020C01EC01DC01CC01BC014
:100010001AC019C011241FBECFE9CDBF10E0A0E661
:10002000B0E0E6E7F2E002C005900D92A439B10716
:10003000D9F720E0A4E9B0E001C01D92A739B207CA
:10004000E1F7BCD016C1DCCF0F930FB70F937894B4
:1000500080919500909196000196909396008093E0
:1000600095008091950090919600893B910550F004
:100070009091940081E0891B8093940010929600E7
:10008000109295000F910FBF0F91189597B1907F27
:100090008370892B87B9369A3699FECF84B195B192
:1000A000089580E0F3DF9C01883C910550F02C32EC
:1000B00081E0380740F081E02C3B324028F080E0BE
:1000C000089583E0089582E00895E0E6F0E020E0FE
:1000D00030E061917191408151818617970728F036
:1000E000265F3F4F822F880F08958417950778F079
:1000F000FB01E81BF90BCF01880F991F641B750BDF
:10010000A4D0265F3F4F220F822F860F08952F5FC6
:100110003F4F24313105E9F68CE3089599E0915081
:1001200069F087FF02C0C09A01C0C098C39A23E05B
:100130002A95F1F70000C398880FF1CF0895CF9367
:10014000DF93C82FD62F82E0E9DF8C2F6AE071D0D1
:10015000C92FE82FF0E0E657FF4F80818F77DEDF71
:10016000C29A83E08A95F1F70000C2988FED9EE273
:100170000197F1F700C0000081E0D0DFEC2FF0E044
:10018000E657FF4F8081DD2311F0806801C08F7733
:10019000C5DFC29A93E09A95F1F70000C2988FEB01
:1001A00092E10197F1F700C00000DF91CF9108952F
:1001B00085E083BF82E089BF789408958FE087BB94
:1001C00082E088BB17B886E886B9F2DF10E000E06D
:1001D000CEE167DFD82F081751F0813021F4C33604
:1001E00030F4CF5F04C0823011F4C111C15082E0FD
:1001F0004DDF6BDF111105C08C1738F0C19811E08D
:1002000004C08C1710F4C19A10E09091940061E042
:10021000913009F060E090919400911101C08C2F11
:100220008EDF8FE79BEB0197F1F700C000000D2FE9
:10023000D0CF991B79E004C0991F961708F0961B40
:10024000881F7A95C9F780950895AA1BBB1B51E1B9
:1002500007C0AA1FBB1FA617B70710F0A61BB70B36
:10026000881F991F5A95A9F780959095BC01CD01DB
:060270000895F894FFCF91
:10027600390222020B02F401DE01C701B2019D011F
:100286008801750161014F013D012C011C010D0121
:10029600FE00F000E300D600CA003F065B4F666D25
:0402A6007D077F6FE2
:00000001FF
