:100000000C9434000C9451000C9451000C94510049
:100010000C9451000C9451000C9451000C9451001C
:100020000C9451000C9451000C9451000C9451000C
:100030000C9451000C9451000C9451000C945100FC
:100040000C9451000C9451000C9451000C945100EC
:100050000C9451000C9451000C9451000C945100DC
:100060000C9451000C94510011241FBECFEFD4E02A
:10007000DEBFCDBF11E0A0E0B1E0EEE1FBE002C0E9
:1000800005900D92A23CB107D9F721E0A2ECB1E0B6
:1000900001C01D92A23CB207E1F70E94C1010C947D
:1000A0008D050C94000084B18F6084B984B18F7881
:1000B00084B985B1806785B985B18F6085B90895A8
:1000C000E0E0F0E043E050E061E070E085B18F6097
:1000D00085B995B19A012E1B3F0BDB0102C0AA0F17
:1000E000BB1F2A95E2F78A2F8095892385B9BDE049
:1000F000BA95F1F7000020E030E083B1D901149601
:1001000090E00A2E02C0959587950A94E2F780FD4B
:100110001EC08FE39CE90197F1F700C0000041E0A9
:1001200050E002C0440F551FAA95E2F783B190E05A
:1001300084239523892BD1F3CF01880F991FE80FD2
:10014000F91FE050FF4FE20FF31F808108952F5FEA
:100150003F4F2330310589F63196E430F10509F03F
:10016000B5CF80E008959BB19F709BB92BB130E172
:10017000839FC0011124822B8BB95B9A82E08A9500
:10018000F1F700C05B9835E83A95F1F70000089563
:10019000CF93C82F5A9882958F700E94B3008C2FEE
:1001A0000E94B30085E88A95F1F700008FE99FE08F
:1001B0000197F1F700C00000CF910895CF93C82FA9
:1001C0005A9A82958F700E94B3008C2F0E94B300C0
:1001D00085E88A95F1F7000085E88A95F1F7000037
:1001E000CF9108958AB18C6F8AB92FE788E391E0A7
:1001F000215080409040E1F700C000005A9883E011
:100200000E94B3008FE097E20197F1F700C0000071
:1002100083E00E94B3008BE291E00197F1F700C008
:10022000000083E00E94B3008FEC97E00197F1F7A4
:1002300000C0000082E00E94B3008FEC97E00197BD
:10024000F1F700C0000088E20E94C8008CE00E9424
:10025000C80081E00E94C8008FE99FE00197F1F794
:1002600000C0000086E00C94C80081E00E94C80035
:100270008FE99FE00197F1F700C000000895811118
:10028000605C862F80680C94C800CF93DF93EC01EC
:100290008991882319F00E94DE00FACFDF91CF9177
:1002A0000895DF92EF92FF920F931F93CF93DF9306
:1002B00000D000D01F92CDB7DEB7082FCE01019637
:1002C0007C0185E0F70111928A95E9F710E00E9420
:1002D000600090ED980F9A30A0F4101750F4DD24D0
:1002E000D394D10EF701E10FF11D80830E94DE004F
:1002F0001D2DFFEF21EE84E0F15020408040E1F71A
:100300001BC08A32E1F4112381F01150F701E10F93
:10031000F11D1082612F81E00E943F0180E20E9466
:10032000DE00612F81E00E943F019FEFE1EEF4E0EB
:100330009150E040F040E1F700C00000C8CF8332A8
:1003400031F6F70180E090E04AE02E2F2E192117B8
:1003500058F45191489F9001499F300D1124C901D3
:10036000C097850F911DF1CF0F900F900F900F90B8
:100370000F90DF91CF911F910F91FF90EF90DF9041
:100380000895CF93DF93CDB7DEB761970FB6F8949A
:10039000DEBF0FBECDBF0E94F2000E94530088EA6C
:1003A000482E81E0582ECE0101965C0197EB292E54
:1003B00091E0392E0E9435018CE091E00E944501C8
:1003C00060E081E00E943F0184E00E9451014C0105
:1003D000805D97408436910528F00E94350189E1BF
:1003E00091E02DC00E94350187E291E00E94450115
:1003F00060E081E00E943F0182E00E9451017C01A7
:100400008FEF8E0D8C3028F00E94350185E391E04E
:1004100016C00E94350184E491E00E94450160E02D
:1004200081E00E943F0182E00E9451016C018FEF48
:100430008C0D8F3170F00E94350180E591E00E94B3
:1004400045019FEF29E688E1915020408040E1F787
:1004500033C00E9435018DE591E00E94450160E0C6
:1004600081E00E943F0182E00E9451013C0197E13E
:10047000961528F40E9435018AE691E014C00E9486
:10048000350188E791E00E94450160E081E00E942B
:100490003F0182E00E9451018C018C3380F00E9468
:1004A000350187E891E00E9445012FEF89E698E148
:1004B000215080409040E1F700C000007BCF0E94B7
:1004C000350187E991E00E9445012FEF8EE994E222
:1004D000215080409040E1F700C000000E943501AB
:1004E000DD24DF92CF92FF24FF92EF929F928F92B2
:1004F0005F924F92BF92AF920E94A302C5010E94E9
:10050000450160E081E00E943F0111271F930F9396
:1005100077247F926F923F922F92BF92AF920E9468
:10052000A302C5010E9445012FEF87EA91E6215001
:1005300080409040E1F700C000000FB6F894DEBFA5
:100540000FBECDBF37CFAEE0B0E0E9EAF2E00C94E9
:1005500064050D891E8986E08C831A8309838FEFD9
:100560009FE79E838D83AE01475E5F4F6F89788DD5
:10057000CE0101960E94C502EF81F885E00FF11FC0
:1005800010822E96E4E00C948005ABE0B0E0EBEC3A
:10059000F2E00C9456056C017B018A01FC01178284
:1005A0001682838181FFCCC1CE0101963C01F60108
:1005B0009381F70193FD859193FF81917F018823BA
:1005C00009F4BAC1853239F493FD859193FF819185
:1005D0007F01853229F4B60190E00E94BC04E7CF88
:1005E000912C212C312CFFE1F315D8F08B3279F0CE
:1005F00038F4803279F08332A1F4232D20611DC0BC
:100600008D3261F0803369F4232D216016C0832D73
:100610008260382EE32DE4603E2E2AC0F32DF86070
:100620001DC037FC2DC020ED280F2A3040F08E323F
:10063000B9F436FC81C1232D2064322E19C036FE58
:1006400006C08AE0989E200D1124922E11C0EAE087
:100650002E9E200D1124222EF32DF0623F2E08C075
:100660008C3621F4832D8068382E02C0883641F400
:10067000F70193FD859193FF81917F018111B3CFA4
:10068000982F9F7D9554933028F40C5F1F4F9FE364
:1006900099830DC0833631F0833771F0833509F0CB
:1006A00059C021C0F801808189830E5F1F4F8824C3
:1006B0008394912C530113C02801F2E04F0E511C7A
:1006C000F801A080B18036FE03C0692D70E002C041
:1006D0006FEF7FEFC5010E94B1044C018201F32D41
:1006E000FF773F2E16C0280122E0420E511CF80170
:1006F000A080B18036FE03C0692D70E002C06FEFAC
:100700007FEFC5010E94A6044C01F32DF0683F2E37
:10071000820133FC1BC0822D90E088169906B0F44C
:10072000B60180E290E00E94BC042A94F4CFF50167
:1007300037FC859137FE81915F01B60190E00E9400
:10074000BC0421102A9421E0821A9108811491049A
:1007500071F7E8C0843611F0893641F5F80137FEAB
:1007600007C060817181828193810C5F1F4F08C037
:1007700060817181072E000C880B990B0E5F1F4F53
:10078000F32DFF763F2E97FF09C0909580957095C9
:1007900061957F4F8F4F9F4FF0683F2E2AE030E0EA
:1007A000A3010E94F804882E861845C0853731F4CD
:1007B000232D2F7EB22E2AE030E025C0932D997F85
:1007C000B92E8F36C1F018F4883579F0B5C080376E
:1007D00019F0883721F0B0C0E92FE061BE2EB4FED9
:1007E0000DC0FB2DF460BF2E09C034FE0AC0292FB6
:1007F0002660B22E06C028E030E005C020E130E0DF
:1008000002C020E132E0F801B7FE07C060817181CB
:10081000828193810C5F1F4F06C06081718180E0EF
:1008200090E00E5F1F4FA3010E94F804882E8618E7
:10083000FB2DFF773F2E36FE0DC0232D2E7FA22EDF
:10084000891458F434FE0BC032FC09C0832D8E7E0F
:10085000A82E05C0B82CA32C03C0B82C01C0B92CFD
:10086000A4FE0FC0FE01E80DF11D8081803321F44C
:100870009A2D997EA92E09C0A2FE06C0B394B39406
:1008800004C08A2D867809F0B394A3FC11C0A0FEA1
:1008900006C0B21488F4280C922C9B180EC0B21417
:1008A00060F4B60180E290E00E94BC04B394F7CFFC
:1008B000B21418F42B1802C0982C212CA4FE10C0DE
:1008C000B60180E390E00E94BC04A2FE17C0A1FC28
:1008D00003C088E790E002C088E590E0B6010CC054
:1008E0008A2D867859F0A1FE02C08BE201C080E219
:1008F000A7FC8DE2B60190E00E94BC04891438F494
:10090000B60180E390E00E94BC049A94F7CF8A94E9
:10091000F301E80DF11D8081B60190E00E94BC0456
:100920008110F5CF222009F442CEB60180E290E09A
:100930000E94BC042A94F6CFF6018681978102C0FA
:100940008FEF9FEF2B96E2E10C947205FC0105906E
:10095000615070400110D8F7809590958E0F9F1FC1
:100960000895FC016150704001900110D8F7809506
:1009700090958E0F9F1F08950F931F93CF93DF9332
:10098000FB01238121FD03C08FEF9FEF2CC022FFCD
:1009900016C046815781248135814217530744F49C
:1009A000A081B1819D012F5F3F4F318320838C93C4
:1009B000268137812F5F3F4F3783268314C08B01F9
:1009C000EC01FB010084F185E02D0995892BE1F60E
:1009D000D80116968D919C911797019617969C9326
:1009E0008E931697CE01DF91CF911F910F910895AD
:1009F000FA01AA27283051F1203181F1E8946F9350
:100A00006E7F6E5F7F4F8F4F9F4FAF4FB1E03ED0F5
:100A1000B4E03CD0670F781F891F9A1FA11D680F93
:100A2000791F8A1F911DA11D6A0F711D811D911DC6
:100A3000A11D20D009F468943F912AE0269F11243B
:100A40003019305D3193DEF6CF010895462F47709F
:100A5000405D4193B3E00FD0C9F7F6CF462F4F70FA
:100A6000405D4A3318F0495D31FD4052419302D058
:100A7000A9F7EACFB4E0A6959795879577956795FE
:100A8000BA95C9F700976105710508959B01AC01FE
:100A90000A2E06945795479537952795BA95C9F725
:100AA000620F731F841F951FA01D08952F923F9200
:100AB0004F925F926F927F928F929F92AF92BF926E
:100AC000CF92DF92EF92FF920F931F93CF93DF931A
:100AD000CDB7DEB7CA1BDB0B0FB6F894DEBF0FBE77
:100AE000CDBF09942A88398848885F846E847D84C4
:100AF0008C849B84AA84B984C884DF80EE80FD80C6
:100B00000C811B81AA81B981CE0FD11D0FB6F8943B
:0E0B1000DEBF0FBECDBFED010895F894FFCFFC
:100B1E003132333435363738392A3023456E7465E1
:100B2E00722059656172203A00496E76616C696473
:100B3E0020596561722100456E746572204D6F6E8D
:100B4E007468203A00496E76616C6964204D6F6E50
:100B5E0074682100456E74657220446179203A00F4
:100B6E00496E76616C6964204461792100456E742A
:100B7E00657220486F7572203A00496E76616C6915
:100B8E006420486F75722100456E746572204D6940
:100B9E006E757465203A00496E76616C6964204DFD
:100BAE00696E7574652100536176656420696E20E7
:100BBE006D656D6F72793A00253034642F253032B1
:100BCE00642F2530326400253032643A2530326489
:020BDE00000015
:00000001FF
